:020000040800F2
:1000000000040020613E0008892D00088D2D0008A5
:10001000912D0008952D0008992D00080000000082
:10002000000000000000000000000000A12D0008FA
:100030009D2D000800000000A52D0008A92D000836
:10004000AD2D0008B12D0008B52D0008B92D000810
:10005000C52D0008C92D0008CD2D0008D12D0008A0
:10006000D52D0008D92D0008DD2D0008E12D000850
:10007000E52D0008E92D0008ED2D0008F12D000800
:10008000F52D0008F92D0008FD2D0008012E0008AF
:10009000052E0008092E00080D2E0008112E00085C
:1000A000152E0008192E00081D2E0008212E00080C
:1000B000252E0008292E00082D2E0008312E0008BC
:1000C000352E0008392E00083D2E0008412E00086C
:1000D000452E0008492E00084D2E0008512E00081C
:1000E000552E0008592E00085D2E0008612E0008CC
:1000F000652E0008692E00086D2E0008712E00087C
:10010000752E0008792E00087D2E0008812E00082B
:10011000852E0008892E00088D2E0008912E0008DB
:10012000952E0008992E00089D2E0008A12E00088B
:100130002DE9F04F0600D3480F0003C8A5B0CDE964
:10014000120102A8083047600020804602A808304B
:10015000C0F82880202081467FF0070082463020AA
:1001600014001D000496834600E0A4190020ADF899
:10017000020000A812AB5FF0FF322100801C03F0E8
:1001800053FE0600012E04DA2078461EB641F643DF
:10019000F60FBDF80200252801D1721E00E03200E2
:1001A000012A0ADB210002A801F0BAF8002804D5D0
:1001B0005FF0FF3025B0BDE8F08FBDF802002528C4
:1001C00019D102A80830C0F8108002A80830C0F881
:1001D000148002A80830C0F8188002A80830C0F8BF
:1001E0001C8002A80830C0F8208002A80830C0F89F
:1001F0002480002007E00028B7D102A80830806AD8
:10020000D8E750F0010014F8011F0A00203AF8D096
:10021000D21E0DD0083A04D0921E06D0D21E0BD0AA
:100220000DE050F0020080B2EDE750F00400FAE774
:1002300050F0080080B2E6E750F01000F3E72A29FA
:1002400011D129680A1D2A60096802AA08321163BF
:10025000002906D502AA08324B4250F0040013636D
:1002600080B2641C19E002A90831C1F830800FE0A7
:1002700002AA0832126B7FF000439A4207D002EBC9
:1002800082035A00891802AA303908321163641CAB
:100290002178302901D33A29EAD321782E2905D0B3
:1002A00002A908315FF0FF32CA6226E014F8011F8C
:1002B0002A2908D12968641C0A1D2A60096802AA33
:1002C0000832D16219E002A90831C1F82C800FE090
:1002D00002AA0832D26A7FF000439A4207D002EBAA
:1002E00082035A00891802AA30390832D162641C8C
:1002F0002178302901D33A29EAD302A90831888626
:100300002178614803F0F0FD10B120000078641CF2
:100310008DF846009DF84600682806D120786828A8
:100320000CD162208DF8460007E06C2806D12078B9
:100330006C2803D171208DF84600641C02A8083097
:1003400014A9C16020000278641C1000413800F03C
:100350000481001F022840F20081133800F0B180B0
:10036000093800F0FA80801E1AD0401E41D0401E8D
:10037000022840F2F280001F3BD0401F00F0358180
:10038000401E00F09E80401E00F07A81C01E00F0EA
:100390008781801E00F09580C01E00F09280A6E14B
:1003A0009DF846006C280DD002A80830016902AA09
:1003B0000832481C10612868021D2A60006814AACF
:1003C00050549FE12868011D296000685FF0FF31EB
:1003D00080B2ADF804000020ADF8060002A8083095
:1003E000C16201A902A800F03BFA002840F18A810D
:1003F000DEE69DF846006C2801D1286812E07128DD
:1004000009D12868C01D1AEA0000010028600831DF
:10041000296003C80AE06A28286803D1C01D1AEAC7
:100420000000F2E7011D29600068C1179DF8463001
:10043000682B01D100B207E0622B01D140B203E08A
:10044000742B01D07A2B00D1C11700290BDC00DB03
:1004500009D202AB08331E6902AF0837731C3B6137
:1004600014AF2D231DE002AB08339B8E9E070DD5E4
:1004700002AB08331E6902AF0837731C3B6114AF2F
:100480002B230EE0243F00082C3F0008DB0709D592
:1004900002AB08331E6902AF0837731C3B6114AF0F
:1004A0002023BB5502AB08331B6914AEF31802AE10
:1004B0000836CDE90201B360110002A800F038FB54
:1004C00020E19DF846006C2801D1286812E07128CF
:1004D00009D12868C01D1AEA00000100286008310F
:1004E000296003C80AE06A28286803D1C01D1AEAF7
:1004F0000000F2E7011D2960006800219DF84630E8
:10050000682B01D180B207E0622B01D1C0B203E0B9
:10051000742B01D07A2B00D1002102AB08339B8EC3
:100520001B07BFD509B90028BCD052F02003782B97
:10053000B8D102AB08331E6902AF0837731C3B61A8
:1005400014AF3023BB5502AB08331E6902AF083726
:10055000731C3B6114AB9A55A4E79DF846004C28E8
:10056000286803D1C01D1AEA000002E0C01D1AEA83
:100570000000010028600831296003C8CDE90201AC
:10058000BDF80E00000402A808D50830016902ABCE
:100590000833481C186114A82D2318E00830808EF9
:1005A000810709D502A80830016902AB0833481C4D
:1005B000186114A82B230AE0C00709D502A8083047
:1005C000016902AB0833481C186114A82023435466
:1005D00002A80830006914A9081802A90831886027
:1005E000110002A800F024FB8CE09DF84600623860
:1005F0000CD0801F32D0801E1CD0801E25D0401F02
:100600000DD0C01E21D0801F1FD030E02868011DF2
:100610002960006802A90831896A017072E02A68BD
:10062000101D2860126802A80830806AC117C2E94C
:10063000000167E02A68101D2860126802A80830CF
:10064000806AC117C2E900015CE02868011D2960C9
:10065000006802A90831896A016053E02868011D19
:100660002960006802A90831896A01804AE0286887
:10067000011D2960006802A90831896A016041E012
:10068000286802AA011D29600068083214AB936033
:1006900002005FF0FF301040CDE9020878210CE73E
:1006A0009DF846006C2828681DD0011D296000684F
:1006B00002A90831886002A90831CA6A002A02D555
:1006C00003F058FC0BE0002103F0D6FB20B102A997
:1006D00008318968401A02E002A80830C06A02A9FD
:1006E000083148610EE0011D296001687AE602A820
:1006F0000830016902AB0833481C186102B9252291
:1007000014A8425402A802A90830006B08310969F4
:10071000401A02A90831C969401A02A90831496979
:10072000401A02A90831096A401A02A908318969E8
:10073000401A02A90831496A461A02A80830808E78
:1007400040070FD400278DF80090012E0ADB01220C
:10075000694602A800F0E4FD00287FF429AD7F1C63
:10076000B742F4DB02A80830026914A902A800F01D
:10077000D7FD00287FF41CAD02A80830C06900270F
:100780008DF800B0019001280BDB0122694602A818
:1007900000F0C6FD00287FF40BAD01987F1C874256
:1007A000F3DB02A80830426902A80830816802A879
:1007B00000F0B6FD00287FF4FBAC02A80830006A08
:1007C00000278DF800B0019001280BDB012269465B
:1007D00002A800F0A5FD00287FF4EAAC01987F1C78
:1007E0008742F3DB02A80830826902A802A9083018
:1007F000406908318968091802A800F091FD0028B5
:100800007FF4D6AC02A80830406A00278DF800B00B
:10081000019001280BDB0122694602A800F080FD4F
:1008200000287FF4C5AC01987F1C8742F3DB02A847
:100830000830808E40077FF599AC00278DF8009036
:10084000012EFFF693AC0122694602A800F068FD74
:1008500000287FF4ADAC7F1CB742BFF687ACF2E74F
:100860002DE9F04F0400606B97B08846002801D551
:100870007FF00040029003F093FBA16B08180390F7
:10088000AA4803C8CDE90501A08F400702D4039808
:1008900041280AD207A881464020039000208246C2
:1008A0003020CDF810A083460CE002F049FD8146CF
:1008B0000028F3D15FF0FF3034E1029808F202081B
:1008C000401B029002980128C0F2AA80B8F80010DC
:1008D00000A805AA401C03F0B5FA050004D4B8F836
:1008E000000028B96D1E03D55FF0FF30049097E03B
:1008F0000298A842C0F29480A069039942199142DB
:1009000080F07F80C4F838A04142606A081AE1692B
:10091000401AA16A401A216A401AE16A461AA08F59
:1009200040070FD4202000278DF80000012E09DB9E
:1009300001226946200000F0F3FC00285FD17F1CF3
:10094000B742F5DBA2694946200000F0E9FC002827
:1009500055D18DF800B0606A0027019001280ADBAC
:1009600001226946200000F0DBFC002847D10198F5
:100970007F1C8742F4DBE2692169200000F0D0FC93
:1009800000283CD18DF800B0A06A00270190012812
:100990000ADB01226946200000F0C2FC00282ED1AB
:1009A00001987F1C8742F4DBE0692169226A0918FB
:1009B000200000F0B5FC10BB8DF800B0E06A002705
:1009C0000190012809DB01226946200000F0A8FC03
:1009D000A8B901987F1C8742F5DBA08F40070ED590
:1009E000202000278DF80000012E08DB0122694637
:1009F000200000F095FC10B97F1CB742F6DBC4F86C
:100A000018A0A06900A92A00491C484401F0FAFC7A
:100A1000A0694019A061B8F8000000287FF44DAF2C
:100A2000A06BA169401A616A401AE169401AA16A83
:100A3000401A216A401AE16A451AA08F40070FD474
:100A4000202000268DF80000012D09DB01226946D7
:100A5000200000F065FC002859D1761CAE42F5DB81
:100A6000A2694946200000F05BFC00284FD18DF8B8
:100A700000B0666A0027012E09DB012269462000CA
:100A800000F04EFC002842D17F1CB742F5DBE26942
:100A90002169200000F044FC002838D18DF800B016
:100AA000A66A0027012E09DB01226946200000F01A
:100AB00037FC00282BD17F1CB742F5DBE0692169A8
:100AC000226A0918200000F02BFC00BB8DF800B052
:100AD000E66A0027012E08DB01226946200000F0AB
:100AE0001FFCA0B97F1CB742F6DBA08F40070ED5D4
:100AF000202000268DF80000012D08DB0122694628
:100B0000200000F00DFC10B9761CAE42F6DBC4F8F4
:100B100018A007A8C4F838A081451CBF484602F0B9
:100B2000A1FE049817B0BDE8F08F00BFAC3F0008ED
:100B30002DE9F743060070698846814640466F28D4
:100B400001D1082706E058F02000782801D00A27B4
:100B500000E0102703CE3C24083E4246CDE90001C8
:100B6000642A01D0692A0BD1002909DC00DB07D2F5
:100B7000DDE9000100220023121A8B41CDE9002398
:100B8000DDE9000111B908B9706B00B3DDE90001BE
:100B90003A00FB1702F032FB3032641ED2B23A2A1E
:100BA00002D340465138121848460255DDE900018B
:100BB0003A00FB1702F022FBCDE90001DDE900015C
:100BC00001B920B13069494609198842DED3082F9E
:100BD0000AD1B08F000707D54846005D302803D002
:100BE000641E4846302101553C20001B4946F061F7
:100BF00009193161716B884206DA081A0B49706273
:100C0000B08F0140B1870FE000290DD5B18F11F0F1
:100C10001401102908D1B16BB269891A726A891A54
:100C20000C1A012CA8BF7462BDE8F783EFFF000027
:100C30002DE9F04F8046894691B0D8E90001CDE911
:100C4000000159F0200A504606AE61280ED0D8F8AF
:100C50003400002803D50620C8F8340006E005D18A
:100C60005046672802D10120C8F83400B8F80610B1
:100C7000C148C24A0840001190420FD10025080720
:100C800008D1B8F8040028B9B8F8020010B9B8F8CB
:100C9000000008B1022017E0012015E0012804DA65
:100CA000404602F05BFC01280CDAB8F80610B44AA2
:100CB0000A40B4491143A8F80610B349451A5FF039
:100CC000FF3001E000200025022810D10320C8F8E1
:100CD0001C004846612803D37B2801D2ABA100E069
:100CE000ABA1D8F81000032201F08CFBC8E1012869
:100CF0000DDB0320C8F81C004846612803D37B287D
:100D000001D2A4A100E0A4A1D8F81000EBE751465D
:100D1000612917D1D8F810104A1CC8F810203022C9
:100D20000A70D8F810104A1CC8F810204A46612AE8
:100D300001D1782200E058220A70D8F81810891CD6
:100D4000C8F8181018B9834600245D468EE1504655
:100D5000612840F09E80D8F83440002C01D5212431
:100D600000E0641CD8E9000124B2CDE90201671C4F
:100D7000DDE900010022002302F08AFF06D2DDE94E
:100D8000020191F00041CDE9000103E0DDE902013B
:100D9000CDE9000100208DF8180006A82D1F401C89
:100DA0000490012F32DBDDE900010022002302F074
:100DB00087FF2BD21C21684602F0FEF8DDE9000116
:100DC00002F044FE0600FF1F012F09DB02F090FF36
:100DD00002000B00DDE9000101F060FECDE9000139
:100DE00004980721C01D012E0ADB491E08D43207D2
:100DF000120F00F8012D3611F5E7002200F8012D41
:100E0000491EFAD5C01D0490012FCCDA049806A91A
:100E1000491C06AE401A761CA042B8BF04B2002C92
:100E20002ED4844206DA06A800194078082801D397
:100E30000F2100E00021200006AA121802E0641E23
:100E400024B2521E1378401E8B42F8D00F2904D1D1
:100E500006A909184A78521C4A70002803D5641C58
:100E600006AE24B22D1D200008E0315C3031C9B23D
:100E70003A2902D34A463A3A89183154401EF4D5E9
:100E8000D8F83400002840F1F180601EC8F8340022
:100E9000ECE0DDE900010022002302F0F9FE05D2BA
:100EA000DDE9000191F00041CDE900017648774984
:100EB0002DB24543764895FBF0F52DB2AB46DBF1FC
:100EC00007020020012A1CDB1400DDE90067CDE9E0
:100ED0000201E00707D530003900DDE9022301F007
:100EE0006FFB06000F00DDE90201DDE9022301F0DE
:100EF00067FB6410CDE90201002CEAD1CDE900675F
:100F000022E0644F54420026CDE90201A4B1E0077B
:100F100007D530003900DDE9022301F051FB06005E
:100F20000F00DDE90201DDE9022301F049FB641055
:100F3000CDE90201002CEAD1DDE9000132003B00DD
:100F400000F0FAFECDE900015046662802D158466D
:100F50000A3000E00620D8F8341008188346142818
:100F600001DB1320834630208DF8180006AC641C8A
:100F70005846012824DA3DE0F07F0000FF0700001A
:100F80000F800000E03F0000FE0300006E616E0075
:100F90004E414E00696E6600494E4600DDE9000193
:100FA00002F06AFD02F0AEFE02000B00DDE9000176
:100FB00001F074FD384B002201F002FBCDE9000185
:100FC000DDE9000102F058FD060008340827300072
:100FD0000A2102F07FFFC9B20A203031B6FBF0F6D9
:100FE00004F8011D7F1EF2D15846083408388346A4
:100FF0000128D3DA06A8401C06AE211A01E0491EDA
:101000006D1E761C30783028F9D05046662802D103
:101010002DB2681C04E0652801D1012000E0002009
:10102000D8F83420141824B2A142B8BF0CB2002C56
:101030001CD48C4204DA305D352801D3392100E01C
:1010400030212000321801E0641E24B2521E1378B1
:10105000401E8B42F8D0392902D1315C491C3154F1
:10106000002803D5641C761E24B26D1C82B02DB2FC
:101070000095230032004946404600F00FF802B0C8
:1010800011B0BDE8F08F00BF97750000000024404C
:10109000A08601000000F03F84D797412DE9F0477A
:1010A00086B08846040016001D0002F027FF406A43
:1010B000676B0078012D814601DA012597A658F06B
:1010C000200066280CD0672840F08F80BDF93810CA
:1010D0007FF003029142C0F28D80B94280F28A8093
:1010E000BDF83810491CADF8381066280AD0A08F1A
:1010F000000702D4BD42B8BF2F46BDF938003F1AE1
:1011000048BF0027E1692069BDF938204018012A4D
:101110002ADA491CE16130210170012F02DAA08F27
:10112000000705D5E1694A46481CE0612069425440
:10113000BDF9380041428F4202DA7842ADF83800FA
:10114000BDF9380041423F18A162AF42B8BF3D46E9
:101150002DB22562E06923692A003100181801F0D8
:1011600051F9781BE062C2E09246954216DA2A00F5
:10117000310001F047F9E069BAEB05014019E0617F
:10118000A162012F02DAA18F090705D521694A461C
:101190000A54206A401C2062E762A8E0310001F096
:1011A00031F9E0691AEB0001E161BDF838002D1A50
:1011B000012F02DAA08F000704D5481CE0612069E6
:1011C0004A4642542DB2AF42B8BF3D46236950460D
:1011D0003118E0692DB22A00181801F013F9E069FE
:1011E0004019E061781BA06281E04046612811D17E
:1011F000702012E0BD4203DAA08F000758BF2F46CF
:101200007F1E48BF00274046672801D1652004E0C3
:10121000452002E0412801D150208046E169481C68
:10122000E061327820694254711C012F02DAA08FEC
:10123000000718D5E2694B46501CE0612069012F78
:10124000835410DB6D1E2DB2AF42B8BF3D46E0693E
:1012500023692DB22A00181801F0D4F8E06940196A
:10126000E061781BA062E06921690E1806F8018B25
:10127000BDF93800002803D42B2006F8010B07E045
:101280002D2006F8010BBDF938004142ADF83810A9
:10129000002502AF0BE001460A22684602F004FE78
:1012A00001986D1C07F8010B0098ADF83800BDF9E6
:1012B00038000128EFDA022D07DA58F02000C0B21A
:1012C000652802D1302006F8010B4DB9302006F810
:1012D000010B07E06D1E02A8405D303006F8010BDF
:1012E000012DF7DAE06921690818301A2062A08F11
:1012F00010F0140010280DD1A069E1694018A16A0E
:101300004018216A4018E16A4018A16B884201DA4E
:10131000081A606206B0BDE8F08700BF3000000028
:101320002DE9F04104000D00160000209EB15FF091
:10133000FF3080462978E068A2689047E06020B1DD
:10134000206B401C2063002000E04046002802D4AF
:101350006D1C761EEED1BDE8F08100002DE9F74F3F
:10136000A04C00208046CDF80480054600F07AFAB3
:1013700029465FF0006002F0E5F89648C14602F0A9
:10138000E7FC012002F0EAFC5FF4C06002F090F894
:1013900003202070012060704046A0700120E070A2
:1013A000200002F08DF800F02FF900F041FB00F072
:1013B0008FFA00F0E9FA8848C2460026834658466C
:1013C00002F022FD00F01CFB070000F025FB3800B6
:1013D0000D3857D0373817D00F3808D0801E44D07A
:1013E0000F3811D00F3802D0801E3ED058E00BF2DB
:1013F000400002F009FD0D2000F00EFB0A2000F075
:101400000BFB00F02FF94BE00BF2500002F0FCFC5C
:101410000BF2640002F0F8FCA1680BF2780002F015
:10142000F3FCE16858468430009002F0EDFC0BF2CA
:101430008C0002F0E9FCA1690BF2980002F0E4FCD8
:10144000E169009802F0E0FC0BF2A80002F0DCFC7D
:10145000216A0BF2BC0002F0D7FC0BF2C40002F0D0
:10146000D3FC616A0BF2DC0018E00BF2E40002F03E
:10147000CBFC0D2000F0D0FA0A2000F0CDFA00F0ED
:10148000C3FB0DE00D2000F0C7FA0A2000F0C4FAFB
:101490003E2000F0C1FA01210BF2081002F0B4FC6A
:1014A0000D2F8CD10BF2141002F0AEFC0BF22C10AD
:1014B00002F0AAFC5CE00198012859D1206A81451C
:1014C00056D3002000F046FA0090012000F042FAC6
:1014D000A16A0700491C0BF25C1002F095FC380071
:1014E00002F010FC02003D480B003D49C14601F0EE
:1014F00067F802F0DDF802F0D5FA03B4029802F0C2
:1015000001FC020035480B00354901F059F802F0A2
:10151000CFF802F0C7FA03B40498390003B4236982
:10152000E268A1680BF2701002F06EFC06B0009841
:10153000390003B42169E0682A0003B4A3683100CC
:10154000504600F00DFB04B02A003100504600F078
:10155000D5FAFF2E03D15046401C5FFA80FAFC2DCD
:1015600001D3761CF6B2A06AED1D401CEDB2A0625C
:10157000A06A616A88422AD21B48202101F0D8FE65
:1015800000288ED120790128F2D100202071206915
:10159000E168401C206109F201093C2824BFC4F81D
:1015A0001080491CA0683C2901D30021401CE16047
:1015B000182828BF0020A060E069884202D1A069F5
:1015C000A16888427FF477AF0120019076E7002080
:1015D000BDE8FE8F2823000004290008E926310811
:1015E000AC1CBA3F240800200038014001B501209E
:1015F00002F0D8F828B1012002F0E6F801480121F4
:10160000017001BD2808002001B501215FF0C05024
:1016100000F0D2FD012002F0BDFC02F08BFC0120A5
:1016200000F05EFD412000F0E5FD0028FAD05FF4F7
:10163000807000F065FD012000F068FD02F0A6F862
:1016400002F09EF80121012002F07EF802F098F8E5
:10165000034802F083F8BDE8014002F091B800BFF2
:10166000FF7F000070B57C4C7C4D03E020009C3077
:1016700002F0CAFB200002F0C7FB00F0C1F94338BA
:1016800010D0801F06D0401F07D0801F4CD00F38CD
:1016900008D0801F00F07F80401F00F09B80801FDB
:1016A00042D070BD20004C3002F0AEFB00F0A8F933
:1016B000060000F0B1F9303E0A204643AE6000F06B
:1016C0009FF9060000F0A8F9A868303E8019A860CC
:1016D00020007C3002F098FB00F092F9060000F048
:1016E0009BF9303E0A204643EE6000F089F906007F
:1016F00000F092F9E868303E8019E860A868182880
:10170000B4D2E8683C28B1D2002028612000C4305F
:1017100002F07AFBEA68A968D834200002F074FB72
:10172000686950F0010034E02000E83002F06CFB02
:1017300000F066F9060000F06FF9303E0A204643DB
:10174000AE6100F05DF9060000F066F9A869303E70
:101750008019A86120007C3002F056FB00F050F99F
:10176000060000F059F9303E0A204643EE6100F0D1
:1017700047F9060000F050F9E869A969303E801980
:10178000E861024604F2141002F03EFB686950F072
:101790000200686170BD04F2301002F035FB00F009
:1017A0002FF9060000F038F9303E0A2046432E6239
:1017B00000F026F9060000F02FF9286A303E801963
:1017C0002862014604F2601002F01EFB686950F0C6
:1017D0000400DEE704F2841002F016FB00F010F9BA
:1017E000060000F019F91E48303E46436E6200F0D4
:1017F00007F9060000F010F9686A303E5FF47A716C
:1018000006FB0100686200F0FBF8060000F004F936
:10181000686A303E642106FB0100686200F0F0F85F
:10182000060000F0F9F8686A303E0A2106FB010064
:10183000686200F0E5F8060000F0EEF8686A303EF5
:1018400080196862014604F2C01002F0DDFA68698E
:1018500050F008009DE700BF28220008240800205F
:101860001027000010B5194C00F0AAFB5FF480307F
:1018700000F0C6FB00F0E2FB2070012824D110200C
:1018800002F094FA022002F08BFA002000F00CFC27
:10189000002000F015FC5FF4806000F00DFC5FF4A8
:1018A000E0115FF4803000F0E3FB012000F0ECFB7E
:1018B000392000F09FFC0028FAD0022000F0EAFB5B
:1018C00000F0ECFB0828FBD110BD00BFA0080020F1
:1018D00030B51E4C012187B0480200F061FC2000A9
:1018E00000F040FF0220ADF800000020ADF802003B
:1018F0001748694601F088FE01A800F07FFF002527
:101900002846ADF808005FF46020039001208DF8B0
:1019100014000195049501A9200000F04BFF01215E
:10192000200000F075FF200000F07CFF200000F098
:101930007FFF0128FAD0200000F082FF200000F095
:1019400085FF0128FAD007B030BD00BF0024014058
:101950000008014010B50B4C0100052301222000B6
:1019600000F088FF0121200000F078FF0221200014
:1019700000F0C2FF0028F9D02000BDE8104000F0C0
:10198000B7BF00BF002401401A4810B586B01A4CFA
:10199000012100F005FC5FF48060ADF80000042038
:1019A0008DF803006946200001F02EFE600DADF8B1
:1019B000000003208DF8020018208DF8030069460E
:1019C00020000E4C01F020FE5FF4E1300190002079
:1019D0000290ADF80C00ADF810000C20ADF80E0030
:1019E00001A9200001F04EFC0121200001F08EFC35
:1019F00006B010BD0440000000080140003801405E
:101A0000044800888006FBD502488088C005C00DC8
:101A1000704700BF00380140044909880906FBD51A
:101A2000024AC105C90D9180704700BF00380140CE
:101A3000184870B5184C194E012100F0B1FBA020D8
:101A4000208018200325E070A5702100300001F0EF
:101A5000DBFD10202080E070A5702100104D3000CB
:101A600001F0D2FD5FF48271E1800020FC31A080A2
:101A7000A060A081E1816082082107202182A082EC
:101A8000211D280001F0AAFF2800BDE870400121B7
:101A900001F0C0BF04100000500800200008014001
:101AA0000030014010B5074C1021200001F0FEFD70
:101AB000062000F009F82000BDE81040102101F0D8
:101AC000F3BD00BF0008014031B50B4D04000221F9
:101AD000280001F0B3FF0028F9D02100280001F010
:101AE000A7FF0121280001F0A9FF0028F9D0280054
:101AF00001F0A0FFC0B232BD00300140F1B5174C7B
:101B000005000E0017001021200001F0CFFD03207A
:101B1000FFF7DAFF2800FFF7D7FF3000FFF7D4FF09
:101B20003800FFF7D1FF0020FFF7CEFF0020FFF7BE
:101B3000CBFF0020FFF7C8FF022502260020FFF799
:101B4000C3FF761EFAD10020FFF7BEFF6D1EFAD14B
:101B50001021200001F0A8FDF1BD00BF00080140E8
:101B60002DE9F14F0A9D0B9E0C9F804689469246B7
:101B7000234C9B46FFF796FF1021200001F096FDB5
:101B80000220FFF7A1FF4046FFF79EFF4846FFF700
:101B90009BFF5046FFF798FF5FFA8BF0FFF794FF2B
:101BA000E8B2FFF791FFF0B2FFF78EFF380002F0C6
:101BB000A9F8144B5FF0663200F002FD01F046FF19
:101BC0000500280AC0B2FFF77FFFE8B2FFF77CFFED
:101BD0000D9802F097F80B4B5FF0663200F0F0FCC6
:101BE00001F034FF0500280AC0B2FFF76DFFE8B22C
:101BF000FFF76AFF1021200001F056FDBDE8F18FCC
:101C000000080140666624403E482DE9F04F8046BA
:101C10003D4887B08146D9F82810404602F0F4F8D4
:101C20003A481021824601F03FFD1021504601F054
:101C30003DFD0320FFF748FF0020FFF745FF002090
:101C4000FFF742FF0020FFF73FFF314800258346A2
:101C50004CE000242046FFF737FF00902046FFF7B6
:101C600033FF01902046FFF72FFF00260290012747
:101C70000020FFF729FF3906490D884003A941F8E4
:101C8000270001F0C9FF0100200001F0B7FB0400AC
:101C90007F1EEDD5594600F0C1FF0400012700204A
:101CA000FFF712FF3906490D884003A941F82700C4
:101CB00001F0B2FF0100300001F0A0FB06007F1E22
:101CC000EDD5594600F0AAFF01F0ECFE03B4200068
:101CD00001F0E8FE03B406986D1C01B5079B069A57
:101CE000290008F21C0002F08FF806B0D9F828008D
:101CF0008542AED31021504601F0D6FC07B0BDE8B6
:101D0000F08F00BF903B000824080020000801402D
:101D10000000C84231B5074D0400E1B2280001F0CF
:101D200003FB8021280001F003FB0028F9D02000EC
:101D300032BD00BF003801404FF4001C1CEB410FC6
:101D400038BF1CEB430F17D31CEB410F09D31CEB1F
:101D5000430F28BF6FF000011B4248BF81F00041D4
:101D600070471CEB430F18BF6FF0000102BF5940D2
:101D700001F0004100207047BCEB410F98BFBCEB65
:101D8000430F39D950EA410C18BF52EA430C13D122
:101D900050EA410C81EA030101F000414FF00000DC
:101DA0001EBF41F0E04141F07F61704752EA430CB1
:101DB00008BF6FF000017047F0B475464FF400148F
:101DC000B4EB410F11D9B4EB430F07D901F052FF27
:101DD00001F042FFE41B7608AE4614E001F03CFF40
:101DE0005F00A4EB5754AE460DE001F043FF4C00FA
:101DF000C7EB5454AE4606E0F0B44C007641640D97
:101E00005F00A4EB575446F1000C04F580646FF0BA
:101E1000404606EA812545EA9055800206EA83237A
:101E200043EA92530221920227D0861A9D4143F041
:101E3000804304D2641E76006D41B6185D41760081
:101E40006D41964275EB030724BFB61A3D464941E2
:101E5000F5D34FF4006076006D41964275EB0307B1
:101E600024BFB61A3D464041F5D376006D41B61AFF
:101E700075EB030708BF364249E0ED1A43F0804393
:101E800003D2641E400043EB45055B4200421AD07A
:101E900041F48061001853EB450538BFED1A494104
:101EA000001853EB450538BFED1A4941001853EBB4
:101EB000450538BFED1A4941001853EB450538BFB9
:101EC000ED1A4941ECD313EB450538BFED1A4941F2
:101ED00013EB450538BFED1A494113EB450538BFF3
:101EE000ED1A4941F4D34FF4006013EB450538BFB8
:101EF000ED1A404113EB450538BFED1A404113EB95
:101F0000450538BFED1A4041EFD313EB45052CBF13
:101F10004FF00045002518BF45F0804540EA41508C
:101F2000C90A641E2FDC41F48011D4F10104202C75
:101F300010DAC4F120072D4225FA04F518BF45F048
:101F4000010500FA07F63543E04001FA07F6304391
:101F5000E14026E0342C12DC203C2D4208BF5FEA31
:101F60004007C4F1200720FA04F518BF45F0010529
:101F700001FA07F6354331FA04F0002111E00020A0
:101F80005FEACC711AE021F4801111EB04515CBFBF
:101F900011F5801F05E000204FF07F6141F0E04126
:101FA0000AE06D0008BF10F0010F98BF5FEA350529
:101FB00050F1000041F1000141EACC71F0BC7047E2
:101FC00098480D4A016851F00101016041680A40DA
:101FD00042600168094A0A40026001687FF4802279
:101FE0000A40026040687FF4FE0101408D48416074
:101FF00000218160704700BF0000FFF8FFFFF6FE80
:10200000884901B50A687FF4803313400B600A6881
:102010007FF4802313405FF480320B60801A04D079
:102020005FF44032801A04D001BD086850F480305B
:1020300002E0086850F4A020086001BD10B50A4C09
:10204000312000F0D7F820706068401C6060207874
:1020500018B9606805498842F2D1312000F0CAF809
:1020600000B1012010BD00BF7C080020FF0100006E
:102070004A4A11B413687FF47C141C402043014386
:10208000116011BC7047000001490860704700BF33
:10209000600042424149032308E000003F480068D5
:1020A00010F00C00704700003C49F0230A689A4386
:1020B000104308607047000038497FF4E06309E08E
:1020C00036497FF460530A68134053EAC000086041
:1020D000704700000A68134018430860704700000A
:1020E000094901B500220A700A70401E02D0C01EC4
:1020F00002D001BD012000E00520087001BD0000F4
:1021000001490A68D4E70000201002400149086034
:10211000704700BF3C044242204930B40A6812F0C4
:102120000C031C4A082B12D10B680D6813F47013B2
:102130005FF480349B0C2C409B1C55085D430CB90C
:102140002A0004E00C68A403FAD453431A00026086
:102150000B6813F0F004104B24091C5DE240426050
:102160000C6814F4E064240A1C5DE24082600A6892
:1021700012F460544268E40A1C5DE240C2600968DF
:1021800011F44041890B5918097CB2FBF1F101614E
:1021900030BC704700127A00C03E000804100240B4
:1021A000044A0029116802D0084310607047814337
:1021B0001160704718100240044A0029116802D0CB
:1021C0000843106070478143116070471C10024043
:1021D000044A0029116802D0084310607047814307
:1021E000116070470C10024001490860704700BF41
:1021F000400442424109012902D10A49096806E026
:10220000022902D10749096A01E00649496AC00664
:102210000122C00E82400A40100018BF0120C0B247
:1022200070470000001002400A0D50726573732061
:102230004320666F7220436C6F636B2C20542066C2
:102240006F722053746172742054696D652C20493B
:1022500020666F7220496E74657276616C2C204E18
:1022600020666F722023206F66205265636F726450
:10227000730A0D000A0D436C6F636B205365747510
:10228000703A20456E746572206D696C6974617274
:102290007920686F757273202830302D3233293AD7
:1022A0000A0D00000A0D4E6F7720656E746572206E
:1022B0006D696E75746573202830302D3539293A73
:1022C0000A0D00000A0D57726F6E6720456E74721A
:1022D000792E205072657373204320746F207265CD
:1022E0002D656E7465722E0A0D0000000A0D5254A1
:1022F0004320557064617465643A0A0D0000000063
:10230000253032643A25303264200A0D0000000086
:102310000A0D53746172742054696D65205365749D
:1023200075703A20456E74657220686F75727320FF
:102330002830302D3233293A0A0D00000A0D53742B
:102340006172742074696D653A20253032643A25D3
:10235000303264200A0D00000A0D456E746572204B
:102360005265636F7264696E6720496E7465727638
:10237000616C20696E207365632E20283030202D1B
:10238000203939290A0D00000A0D5265636F726405
:10239000696E6720496E74657276616C3A202530EB
:1023A0003264207365630A0D000000000A0D456E5B
:1023B000746572204E756D626572206F662052657D
:1023C000636F72647320283030303031202D20321A
:1023D00036303030292C206578616D706C653A207C
:1023E00030303036340A0D000A0D4E756D6265725C
:1023F000206F66205265636F7264733A2025640A09
:102400000D000000830707D0521E24BF11F8013BC6
:1024100000F8013BF6D8704711F0030320D1103AC1
:1024200007D330B4B1E83810103AA0E83810F9D228
:1024300030BC530724BFB1E80810A0E8081044BF1F
:1024400051F8043B40F8043BD20724BF31F8022B7B
:1024500020F8022B44BF11F8013B00F8013B704704
:1024600070B5022B72DB39D0103A11F8013B14D34E
:10247000B1E87010103A43EA04234FEA146444EAC6
:1024800005244FEA156545EA06254FEA166646EA31
:102490000C2678C04FEA1C63EAD8540709D330C928
:1024A00043EA04234FEA146444EA052418C04FEABF
:1024B000156341BF51F8044B43EA042340F8043B41
:1024C000230ED20721BF31F8024B43EA042320F840
:1024D000023B230A48BF00F8013B70BD103A31F8B7
:1024E000023B14D3B1E87010103A43EA04434FEAB8
:1024F000144444EA05444FEA154545EA06454FEAC7
:10250000164646EA0C4678C04FEA1C43EAD2540706
:1025100009D330C943EA04434FEA144444EA05446A
:1025200018C04FEA154341BF51F8044B43EA044336
:1025300040F8043B230CD20704D320F8023B48BFE9
:1025400011F8013B48BF00F8013B70BD11F8014B89
:1025500031F8023B44EA0323103A14D3B1E8701077
:10256000103A43EA04634FEA142444EA05644FEA4C
:10257000152545EA06654FEA162646EA0C6678C038
:102580004FEA1C23EAD2540709D330C943EA046353
:102590004FEA142444EA056418C04FEA152341BFEA
:1025A00051F8044B43EA046340F8043B230AD20782
:1025B00024BF20F8023B1B0C48BF00F8013B70BD54
:1025C000B0B581EA030C0CF0004C40F2FF7515EA3F
:1025D00011541DBF15EA1357AC42AF423AE0E4195B
:1025E00023EA455343F48013C90241F0004141EA14
:1025F00050574FEAC02E1100AEFB020200284FF0E8
:102600000000E7FB01204FF00001E3FB0E2118BFA3
:1026100042F00102401800214941E3FB0701A4F503
:1026200080640F0302D252004041494154F1010439
:102630006BDD470872F1004250F1000051EB04518C
:10264000A1F580115CBF41EA0C01B0BD4CEA055117
:102650000020B0BD05EA1357AC4214BFAF4240E0C2
:1026600050EA410E1CBF52EA430E02E061460020D0
:10267000B0BD24423C441AD13F42F7D0090302BF07
:1026800001460020143FB1FA81FEA7EB0E0401FAC7
:102690000EF70EF10C0ECEF1200100FA0EFEC8402E
:1026A00047EA000723EA455343F48013A3E733F0D6
:1026B0000043B3FA83F704BFB2FA82FE77440B3FBC
:1026C000E41BB7F1200E2FBF02FA0EF3BB40C7F197
:1026D000200E22FA0EFE38BF43EA0E03BA40641CF5
:1026E00082E750EA410E14BF52EA430E6FF0000138
:1026F0004FF4001717EB430F8ABF194617EB410F32
:10270000B6E74CEA05510020B0BDD4F10104B4F1A4
:1027100020070FDAC4F12007520828BF42F0010257
:1027200010FA07F501FA07F7E1BF2A43E040384302
:10273000E1400FE0352C99DCC7F1200452EA400259
:1027400020FA07F218BF42F0010231FA07F0A14067
:102750000A43002172F1004250F1000051EB0C01DC
:10276000B0BD0000124901B5401A07D0090D401A4A
:102770000CD05FF4A051401A12D001BD01214802D3
:10278000FFF726FD00215FF4007006E001218802BA
:10279000FFF71EFD00215FF48060FFF719FD01BD0A
:1027A0000121C803FFF714FD00215FF40040F4E7A6
:1027B0000024014042680F4B13400A681A430B790A
:1027C00052EA03220C4B426082681340CA681A43E3
:1027D0008B6813434A7953EA42028260C26A097CD9
:1027E0007FF470031340491EC9B253EA0151C1621C
:1027F000704700BFFFFEF0FFFDF7F1FF0021016011
:10280000017141718160C160012101747047000054
:102810000029816802D051F0010101E001229143B9
:1028200081607047816851F0080181607047000045
:10283000806808210140080018BF0120704700008F
:10284000816851F0040181607047000080680421B4
:102850000140080018BF012070470000002981686E
:1028600003D051F4A001816070477FF4A0020A40B8
:102870008260704771B40A290BD3C468B1F10A05AC
:1028800005EB45050726AE40B443AB402343C36088
:1028900008E0046901EB41050726AE40B443AB40B4
:1028A00023430361072A0AD2436B521E02EB8202C2
:1028B0001F249440A34391401943416316E00D2A1D
:1028C0000AD2036BD21F02EB82021F249440A3435F
:1028D00091401943016309E0C36A0D3A02EB820299
:1028E0001F249440A34391401943C16271BC7047B7
:1028F000C06C80B27047000000680140080018BF3B
:10290000012070473C533E65747570203C443E691D
:1029100073706C61792073657474696E6773203CA1
:10292000553E706C6F61642064617461203C456E3B
:102930007465723E43617074757265206461746180
:102940000A0D00000A0D5365747570204D6F6465A3
:102950000A0D00000A0D4441532053657474696EDA
:1029600067733A0A0D0000000A0D5265616C20542D
:10297000696D6520436C6F636B3A00002020202056
:1029800025303264000000003A253032640A0D0020
:1029900053746172742054696D653A0020202020C0
:1029A0002020202020253032640000005265636F13
:1029B0007264696E6720496E74657276616C3A0064
:1029C00020256473656300000A0D4E756D626572A3
:1029D000206F66205265636F7264733A00000000D6
:1029E000202025640A0D00000A0D55706C6F61648B
:1029F000205265636F726473202831313532303074
:102A00002C20384E31290A0D000000000A0D20301C
:102A100078253032580000000A0D2057616974692A
:102A20006E6720746F2053746172740A0D00000089
:102A30000A0D54696D652020202020204144433137
:102A400020202020414443322020202052656D6FF9
:102A50007465202020204F6E626F6172640A0D0041
:102A60000A44415320526561646F757420232564C4
:102A70003A0A0D000A253032643A253032643A258C
:102A800030326420253034642025303464202532EF
:102A90002E31662025322E31660A0D00F0B44FF03B
:102AA000004591EA030F44BF6B4000F018BB8B4216
:102AB00008BF824205D98446100062464C19591954
:102AC00023004FF4001C1CEB410F06D308BF1CEB86
:102AD000430F28BF6FF0000162E0BCEB430F14D935
:102AE000AB4352EA43060BD04FEA4C0CBCEB410F10
:102AF00004D80C0D661E342E57DD51E0801A994122
:102B000050EA410608BF00214AE00C0DA4EB135621
:102B1000362E45DC012E45DC4FEA045445EAC3233A
:102B200043EA525312BFD20292025B0845EAC12126
:102B300041EA5051D2EBC020994125D404BF01464F
:102B40000020B1FA81F601FA06F1C6F1200220FA5E
:102B500002F241EA020100FA06F002BF2036094201
:102B60001EE04FEAF474B4EB465434F001064FEA29
:102B7000740409D8D6F50016760D2C40F04071FA91
:102B800006F25040F1404840C00A40EA415021EA74
:102B9000050128BF5FEA500550F1000044EBD12148
:102BA000F0BC704745EAC323DB0A45EAC121C90AE4
:102BB000202E0DDD203E63FA06F5F3405D40124203
:102BC00018BF45F001056D42984161F100010DE02B
:102BD00062FA06F5F24085EA020563FA06FC82EA2B
:102BE0000C02F3405A406D429041994111F4801F0C
:102BF00005D1641E620502D06D004041494121F4B7
:102C000080116D0008BF10F0010F98BF5FEA350515
:102C100050F1000041EB0451F0BC704710B5FF23A8
:102C200013EAD0541DBF13EAD1529C429A4246E0A7
:102C3000A41ADA0780EA0103134042EA012142EABA
:102C40000020421A3CBF641E01EB4202090AB2FB9B
:102C5000F1F001FB10221202B2FBF1FE01FB1E2279
:102C60004EEA00201202B2FBF1FE01FB1E224EEAE8
:102C700000207F3410DDE40552EAC07272F1004199
:102C800054EB500058BF10F5000F5CBF184310BD47
:102C9000FF2043EAC05010BDD4F1020440F0807020
:102CA000192C0ADCC4F1200110FA01F10A4372F177
:102CB000004120FA04F0584110BD180010BD4FF03B
:102CC000807212EB400F3CBF12EB410F14E012EB8D
:102CD000400F08D312EB410F28BF6FF0000001F046
:102CE0000041484010BD12EB410F12BF6FF00000D1
:102CF000484000F0004010BD44001CBF5FEA4104A2
:102D00000DE0440080EA010000F000401CBF40EAF2
:102D1000C35010BD4A0008BF6FF0000010BD4FF057
:102D20008072B2EB400F20D9B2EB410F0DD980EA8F
:102D3000010303F0004340024902B0FA80F2B1FA05
:102D400081F49040A140A41A7BE703EAD15490EAB1
:102D5000010303F000434002B0FA80F29040644265
:102D6000A41A090241F000416BE703EAD05490EA4B
:102D7000010303F000434902B1FA81F29140A41823
:102D8000000240F000405CE770470000FEE70000F2
:102D9000FEE70000FEE70000FEE7000070470000CD
:102DA0007047000070470000704700007047000047
:102DB000704700007047000001B5BDE80140FEF714
:102DC00015BC00007047000070470000704700000D
:102DD0007047000070470000704700007047000017
:102DE0007047000070470000704700007047000007
:102DF00070470000704700007047000070470000F7
:102E000070470000704700007047000070470000E6
:102E100070470000704700007047000070470000D6
:102E200070470000704700007047000070470000C6
:102E300070470000704700007047000070470000B6
:102E400070470000704700007047000070470000A6
:102E50007047000070470000704700007047000096
:102E60007047000070470000704700007047000086
:102E70007047000070470000704700007047000076
:102E80007047000070470000704700007047000066
:102E90007047000070470000704700007047000056
:102EA0007047000090EA010F44BF81F0004100F03C
:102EB000ACBAA446814282BF80F0004481F0004059
:102EC0002146FF2303EAD05413EAD15218BF94EAF3
:102ED000030F20D14FF0807313EB400F07D308BFCF
:102EE00013EB410F28BF6FF00000644670474B00A2
:102EF0000CD0022C07DB4902A31A172B4FF000421B
:102F00003FDD6446704721F00041401A430008BF8E
:102F1000002064467047A31A192BC4BF644670474B
:102F20004FF00042012B2ADC00F0004342EA01216D
:102F300008BF490842EA0020401A15D404BF64467D
:102F40007047B0FA80F29040A41A0DD8C4F1090479
:102F5000C4F12102E0401843924008BF10F0010F75
:102F600088BF401C6446704720F0004053EA1020A0
:102F700028BF5FEA500240EBC4506446704742EA03
:102F80000121C40D42EA0020C3F1200201FA02F23D
:102F9000D9405242884100D4400064F1010452EA11
:102FA000406208BF10F4807F08BF20F08000000A54
:102FB00040EBC4506446704770B5404E0400E08852
:102FC0000D003F4901400811B0420CD1E0880007D4
:102FD00005D1A08818B9608808B9208808B10220F6
:102FE00070BD012070BD30B9200000F0B7FA012893
:102FF00001DB002070BD2D18B5420BDBE08800041A
:1030000002D53049002001E000203105C4E900016B
:10301000012070BD012D09DBE0882B49ADB20140D4
:1030200051EA0510E0805FF0FF3070BDE1885FF489
:1030300000406D1E08400907090F51F01001E180A2
:103040007FF033018D4205DAE0800020A0806080AF
:10305000208070BD2DB27FF00E018D420BDA6288A8
:1030600010352DB22280A2886280E288A2800022E0
:10307000E2808D42F3DB694209B2002917D0238830
:1030800065880A00D2F110020B4195401D4325804E
:103090006388A5880B4195401D436580A388E5881A
:1030A0000B4195401D43A580E288CA40E280E1883B
:1030B0000843E0805FF0FF3070BD00BFFF070000F5
:1030C000F07F00000000F0FF0F800000F0B44FF030
:1030D000004591EA030C44BF6B40FFF7E8BC8B420C
:1030E00008BF824205D98446100062468C4619000A
:1030F00063464FF4001C1CEB410F01D3F0BC70473A
:10310000BCEB430F0FD952EA430648D0BCEB410F4A
:1031100005D80C0DAB43661E342E0CDD3FE0AB43EF
:10312000801859413BE00C0DA4EB1356352E36DCCC
:1031300045EAC323DB0A45EAC121C912202E11DB6F
:10314000203E18BF5FEA020263FA06F523FA06F38F
:1031500085EA030518BF45F00105C01851F10001CB
:103160000CD213E072FA06F5F2405540F3415A4092
:10317000B340F3405A408018594107D349085FEAE9
:1031800030005FEA350528BF45F0010501F58011E3
:10319000420875F1004250F1000041EB0451F0BCCF
:1031A0004FF4001C1CEB410F38BF70470020090D85
:1031B000090570472DE9005003D34942404261F1AF
:1031C000000100F01BF8BDE800505FEA4C0C05D38D
:1031D0004942404261F100011CEA0C0F03D55B42F9
:1031E000524263F10003704713F0004C03D55B4279
:1031F000524263F100039CEA210CDBD151EA030C3B
:103200000ED1002A1FBF8446B0FBF2F002FB10C2B1
:10321000704700F0EFBE0B00020000210020704755
:1032200052EA030CF5D02DE9F041002400250F00EF
:10323000060052EA03081FD05FF0000892185B41B5
:1032400008D2BB4208BFB24298BF08F10108F5D9C5
:1032500018F100085FEA33034FEA3202B01A77EB45
:10326000030124BF0F46064664416D415B084FEAE7
:103270003202B8F10108F1DA2000290032003B00E7
:10328000BDE8F08130B50400208A0D001B4985B0EF
:103290000140E88808431A492082A0890140A88893
:1032A000084329890143688908431649A081A08AF7
:1032B0000140A8890843A0826846FEF72DFF124806
:1032C000844214BF02980398192148432968642353
:1032D0008900B0FBF1F16420B1FBF0F002011000B5
:1032E000120902FB131109013231B1FBF3F1090795
:1032F000090F0143218105B030BD00BFFFCF0000A1
:10330000F3E90000FFFC000000380140002981893A
:1033100003D051F4005181817047024A0A408281F2
:10332000704700BFFFDF0000C905C90D81807047ED
:1033300000880140080018BF0120C0B2704700009B
:1033400070B505002C000F3407208443012000F0E5
:1033500057FAA54204D3012000F078FA002070BD8E
:10336000082C04D2082402E0083000F07BFA224D39
:10337000286801000CD1291D00E0011D0868A0B1DA
:103380000268A242F9D315E01368A34212D2111DBC
:103390000A68002AF8D10068291D03E01368A342D7
:1033A00008D2111D0A688242F8D100F0E5FC00281D
:1033B000DAD100210029CED00E6830680838A0424A
:1033C00002D27068086008E03019086072684260D4
:1033D00030680A68001B10603460086818B14168E2
:1033E00009B1001D00E000202860012000F02EFA45
:1033F0000836300070BD00BF8408002090EA010F3D
:1034000044BF81F00041FFF754BDA446441A3CBFBD
:10341000001B0919FF2303EAD05413EAD15218BF45
:103420009C4219D14FF0807313EB400F24BF6446C8
:1034300070474B0004BF64467047244207D04902DE
:10344000A31A172B4FF000420FDD6446704721F09E
:103450000041401864467047A31A182BC4BF644645
:1034600070474FF0004242EA0121C40D42EA0020B9
:10347000C3F1190201FA02F2D940401834BF641EA8
:103480004FEA300052EA40624FEA102004BF10F0C9
:10349000010F5FEA320240EBC4504FF0807313EB30
:1034A000400F3CBF64467047C00DC005644670477E
:1034B0000249014328480160704700000000FA05F6
:1034C000F0B401000B78C87858B323481B4C00684F
:1034D0009A1014EB820215684F789B07DB0EFF24CD
:1034E00010F4E0609C40D0F5E060A543000AAC46D3
:1034F0000426351A8E78AF403D000F27C74037406D
:103500002F4338019840044065462C4314600878E6
:10351000094A01234111C006C00E834042F8213000
:1035200007E007495811DB060122DB0E9A4041F8FB
:103530002020F0BC704700BF00E100E000E400E0A4
:1035400080E100E0024A0A400243024802607047FC
:1035500080FFFF1F08ED00E00CED00E071B40100FA
:10356000C888CB885FF40042024001201B071B0F74
:10357000CB8006D18B8833B94B8823B90B8813B91C
:103580003CE0CB88EBB98B88103800B2CB804B88FD
:103590008B800B884B8000230B80F2E78B88401ECA
:1035A00000B2DD0B55EA4404CC804C88E50B55EAAB
:1035B00043038B800B88DD0B55EA44044C805B0091
:1035C0000B80CC88102CE9D3CB88202B13D34C88CC
:1035D0000D88401CE60356EA55050D808D8800B223
:1035E000EE0356EA54044C80DC0354EA55048C8004
:1035F0005B08CB80E8E71B071B0FCB80CB881A4307
:10360000CA8072BC704700002DE9F003CB781A071E
:10361000120FDB0602D513008A781A430B889846EE
:103620005FEA08631BD00568002301269E404746D9
:103630003740B7420FD19C000F27A740BD432F0052
:1036400012FA04F5CC783D43282C08BF4661CC78AB
:10365000482C08BF06615B1C082BE6D305605FF4AD
:103660008074A0451DD3456800231C000126083442
:10367000A64047463740B7420FD19C000F27A740CE
:10368000BD432F0012FA04F5CC783D43282C08BF27
:103690004661CC78482C08BF06615B1C082BE4D33C
:1036A0004560BDE8F00370470161704741617047B4
:1036B0004FF4001C1CEB410F84BF6FF000007047FB
:1036C0005FEAF171B1F1E04128BF614513D34900D0
:1036D00038BFB1F17F5F32D289084FEA01115FEA4A
:1036E000310141EA50710001084608BF10F0010F96
:1036F00088BF401C70478C464908C90241EA5051B6
:10370000C00218BF41F0010141F000414FEA6C5086
:10371000173011D45FEA5C0C01FA00FCC0F11F0005
:1037200021FA00F15FEA310148085CEB0C0C08BF9C
:10373000C04241F1000070474FEACC707047C901A8
:10374000FF31C805704700001E4A0029118802D0C9
:103750000843108070478143118070471D490A88D3
:1037600052F010020A8010F47022120C8A80034A70
:10377000088100BF088802400A807047EFFF000000
:10378000144800888006FBD5704700001148044AA1
:1037900001880A40028001880907FCD5704700BFF4
:1037A000F7FF0000074901B58A8801001140054A6A
:1037B0001288024204D0C8B2002802D0012002BD03
:1037C000002002BD0028004002490A8882430A8086
:1037D000704700000428004010B5214C201D00F067
:1037E00093F92000083000F08FF920000C3000F031
:1037F0008BF910342000BDE8104000F085B90000BE
:1038000031B5174C0500206898B9201D00F074F9F7
:103810002000083000F070F920000C3000F06CF946
:103820002000103000F068F907480022002100F065
:1038300099F801202060042D04D2A8002018001D52
:1038400000F06AF931BD00BFD937000801B504287E
:1038500005D2034980000818001D00F065F901BD7C
:103860006808002010B5E8B108380400206808286E
:1038700018D3400716D10120FFF7C2FF194841684D
:1038800009B18C4203D2616044601AE019004B68B0
:103890000BB1A342FAD30A688B189C4203D20120D1
:1038A000FFF7D4FF10BD04D123680C00D2180A60C2
:1038B00007E04A681AB12368E3189A42EFD36260BE
:1038C0004C6061680029EAD02268A2188A42E6D1D9
:1038D00000210160606821680268891821604068E1
:1038E0006060DCE78408002030BF704720BF70476D
:1038F00040BF7047BFF36F8F7047BFF34F8F704764
:10390000BFF35F8F704701DF7047EFF3148070479C
:1039100080F31488BFF36F8F7047EFF3098070470F
:1039200080F309887047EFF30880704780F30888B8
:10393000704762B6704772B67047EFF310807047F9
:1039400061B6704771B67047EFF31380704780F32C
:1039500011887047EFF31280704740BA704700BA81
:10396000704700001C4B30B41C68084DAC4201D3BA
:10397000002502E025000C341C600DB9012003E095
:1039800029606860AA60002030BC7047D40700201E
:1039900001B5002000F002F801BD0000F1B50E4DA8
:1039A0002C68260014D00B4FBE4211D028688442E8
:1039B00001D0060004000C3E7168080006D000200B
:1039C0007060306808B1884700E08847BE42EDD19A
:1039D000F1BD00BF00060020B409002002880B885A
:1039E00012F4415213434A881A438B881343CA88FE
:1039F0001A430B8913434A891A438B891343CA8993
:103A00001A430D4B0280828B13408383098A018203
:103A1000704700000029018803D051F04001018067
:103A20007047024A0A400280704700BFBFFF000093
:103A30008181704780897047FFF70000008901404D
:103A4000080018BF0120C0B270470000F446400DC6
:103A500040EAC120490006D200F013F8004248BFF6
:103A60006FF00040604700F00CF84FF000418842D2
:103A70008CBF084640426047400D40EAC1204900E3
:103A80000CD240F00040490DA1F58061491C05D4DD
:103A9000D1F11F0154BFC840C01770474FF000005C
:103AA00070470000014648074FF0807C1CEB410F37
:103AB00005D30CBF41F4E0016FF000017047BCEB8F
:103AC000410F12D95FEA410C14D001F0004101F11D
:103AD00060514FEACC1C5FEA4C0CA1F58011FAD57D
:103AE0004FEA4C5001EBDC217047C91021F0E04156
:103AF00001F16051704700000F4901B509680A00E3
:103B000018BF884701BD00000C4901B509680A00CB
:103B100018BF884701BD0000094901B509680A00BE
:103B200018BF884701BD0000064901B509680A00B1
:103B300018BF884701BD00009008002094080020AD
:103B4000980800209C080020FC3F0008FC3F00086B
:103B5000FC3F0008FC3F0008FC3F0008FC3F000859
:103B6000FC3F0008FFFFFFFFFFFFFFFFF83F0008DB
:103B7000FC3F0008FC3F0008FC3F0008FC3F000839
:103B8000D43F0008DC3F0008FC3F0008FC3F000871
:103B90000A0A0A55706C6F6164696E67202564209B
:103BA0007265636F72642E0A0A0D00000A23256491
:103BB0003A0A0D253032643A253032643A253032E3
:103BC000642025322E31662025322E31660A0D0AF8
:103BD0000D00000028B9044803C8C2E90001002014
:103BE0007047017001207047C43F000829B9094897
:103BF00003C8C3E900010020704712B97FF001003B
:103C0000704708B10A7802800978481E8041C04395
:103C1000C00F7047CC3F0008002840F10880F446F0
:103C2000404200F004F850F00040604700280DD0FA
:103C3000B0FA80F18840D1F19D0110F07F0F06D1DC
:103C4000000A10F0010F03D800EBC1507047000AC2
:103C500040EBC150704700004000494176410024CC
:103C600011F4801F05D1641E4000494111F4801FEA
:103C7000F9D0704752005B417641002713F4801F52
:103C8000F7D17F1E52005B4113F4801FF9D07047BB
:103C90004FF4001C1CEB410F98BF1CEB430F09D8DD
:103CA00041EA030C50EA4C0C52EA0C0C03D2994244
:103CB00008BF9042704718BF8B4208BF82427047CE
:103CC0004FF4001C1CEB410F98BF1CEB430F09D8AD
:103CD00041EA030C50EA4C0C52EA0C0C03D28B4222
:103CE00008BF8242704718BF994208BF9042704790
:103CF000010040F10880F446404200F004F851F021
:103D000000416047010009D0B0FA80F18840C91C29
:103D1000C1F58461090501EBD02140057047000021
:103D200011B48A18914203D111BC70479142FBD063
:103D300011F8013B00245BB202E05B1E00F8014B6E
:103D4000002BF3D0F9D511F8014B5B1CF6E700000E
:103D500001490860704700BF14E000E005490028F1
:103D6000086802D050F0020001E00222904308608F
:103D70007047000010E000E00649086808B1002024
:103D8000704705480722086004499143091A0160F9
:103D9000704700BF8C0800200004002000060020AF
:103DA00007490A6812F0380204E0000004491023B1
:103DB0000A689A430A600A68104308607047000066
:103DC0000020024031B5064C064DAC4206D094E8C6
:103DD0000700E36810349847AC42F8D131BD00BF0A
:103DE000E83D0008083E0008D4070020D407002062
:103DF000D0000000853F0008A4080020FD3F000817
:103E000082000000213D00080EB403B503A9009113
:103E1000020004486B460121FCF78AF9BDE8064020
:103E200003B07047913E0008F1B504000D00160084
:103E30001F0000F06DF83B00320029002000FFF762
:103E4000D5FEF2BD70B504000D00160000F060F85C
:103E5000320029002000BDE87040FFF7BBBE000023
:103E600000F0C4F8002801D0FFF7ACFF0020FDF7F8
:103E700075FA00F0B7F800000906090E521E05D3C6
:103E800010F8013B8B42F9D1401E7047002070476B
:103E900031B504000D00280000F054F8A84218BF06
:103EA0000024200032BD000030B4030091FBF2F585
:103EB000280002FB1512C3E9000230BC7047000065
:103EC00000000000010203040102030406070809C0
:103ED00002040608094208BF00F08AB88446B0FB15
:103EE000F1F001FB10C170470906090E02788A4201
:103EF00003D0401C002AF9D10020704710B5034CB4
:103F00002068010018BF8047201D10BD280900202F
:103F100010B5034CE06A010018BF8047A06910BDCE
:103F2000A40800200000000000000000686A6C7413
:103F30007A4C000001B50120FEF756F90020FEF78B
:103F400053F901BD024901B5FDF7E4FE02BD00BF12
:103F500074090020024901B51820ABBEFCE7C04639
:103F6000260002000746FFF713FD3846FFF7F2FF71
:103F7000FBE70000431C10F8011B0029FBD1C01A0D
:103F80007047000022B1002140F8041B121FFBD132
:103F90007047000001490860704700BF20000E42D2
:103FA00001B5FFF7B5FF012002BD000000000000D1
:103FB0000000000066616C73650000007472756536
:103FC00000000000000000000000000000000000F1
:103FD0000000000066616C73650000007472756516
:103FE0000000000001B5FFF7BDFF01BD01207047D3
:103FF0007047000070472E002E000000001CFCFBE4
:104000003F000804FCFB3F000808FC483B00085444
:1040100098FA3F0008FA3F0008FA3F0008FA3F000C
:1040200008FA3F0008FA3F0008FA3F0008FFFFFFC8
:10403000FFFFFFFFFFF63F0008FA3F0008FA3F00CE
:1040400008FA3F0008FA3F0008B43F0008BC3F00F0
:1040500008FA3F0008FA3F000802040101D40700F3
:104060002024080020D4070020D4070020D4070013
:0F40700020B10900209809002021FD0600200042
:0400000508003E6150
:00000001FF
